{
  "_format": "hh-sol-artifact-1",
  "contractName": "Resume",
  "sourceName": "contracts/Resume.sol",
  "abi": [
    {
      "inputs": [],
      "stateMutability": "nonpayable",
      "type": "constructor"
    },
    {
      "anonymous": false,
      "inputs": [
        {
          "indexed": false,
          "internalType": "address",
          "name": "user",
          "type": "address"
        },
        {
          "indexed": false,
          "internalType": "string",
          "name": "name",
          "type": "string"
        }
      ],
      "name": "CreateResume",
      "type": "event"
    },
    {
      "anonymous": false,
      "inputs": [
        {
          "indexed": false,
          "internalType": "address",
          "name": "user",
          "type": "address"
        }
      ],
      "name": "DeleteResume",
      "type": "event"
    },
    {
      "anonymous": false,
      "inputs": [
        {
          "indexed": true,
          "internalType": "address",
          "name": "previousOwner",
          "type": "address"
        },
        {
          "indexed": true,
          "internalType": "address",
          "name": "newOwner",
          "type": "address"
        }
      ],
      "name": "OwnershipTransferred",
      "type": "event"
    },
    {
      "anonymous": false,
      "inputs": [
        {
          "indexed": false,
          "internalType": "address",
          "name": "user",
          "type": "address"
        }
      ],
      "name": "UpdateResume",
      "type": "event"
    },
    {
      "inputs": [
        {
          "internalType": "string",
          "name": "name",
          "type": "string"
        },
        {
          "internalType": "string",
          "name": "email",
          "type": "string"
        },
        {
          "internalType": "string",
          "name": "github",
          "type": "string"
        },
        {
          "internalType": "string",
          "name": "about",
          "type": "string"
        },
        {
          "internalType": "string[]",
          "name": "skills",
          "type": "string[]"
        },
        {
          "internalType": "string[]",
          "name": "experiences",
          "type": "string[]"
        },
        {
          "internalType": "string[]",
          "name": "education",
          "type": "string[]"
        },
        {
          "internalType": "string[]",
          "name": "projects",
          "type": "string[]"
        }
      ],
      "name": "addResume",
      "outputs": [],
      "stateMutability": "nonpayable",
      "type": "function"
    },
    {
      "inputs": [],
      "name": "checkIsCreated",
      "outputs": [
        {
          "internalType": "bool",
          "name": "",
          "type": "bool"
        }
      ],
      "stateMutability": "view",
      "type": "function"
    },
    {
      "inputs": [
        {
          "internalType": "address[]",
          "name": "list",
          "type": "address[]"
        }
      ],
      "name": "checkListCreated",
      "outputs": [
        {
          "internalType": "bool",
          "name": "",
          "type": "bool"
        }
      ],
      "stateMutability": "view",
      "type": "function"
    },
    {
      "inputs": [],
      "name": "deleteResume",
      "outputs": [],
      "stateMutability": "nonpayable",
      "type": "function"
    },
    {
      "inputs": [
        {
          "internalType": "address",
          "name": "user",
          "type": "address"
        }
      ],
      "name": "deleteResumeByOwner",
      "outputs": [],
      "stateMutability": "nonpayable",
      "type": "function"
    },
    {
      "inputs": [],
      "name": "getEducation",
      "outputs": [
        {
          "internalType": "string[]",
          "name": "",
          "type": "string[]"
        }
      ],
      "stateMutability": "view",
      "type": "function"
    },
    {
      "inputs": [],
      "name": "getExperiences",
      "outputs": [
        {
          "internalType": "string[]",
          "name": "",
          "type": "string[]"
        }
      ],
      "stateMutability": "view",
      "type": "function"
    },
    {
      "inputs": [
        {
          "internalType": "address",
          "name": "user",
          "type": "address"
        }
      ],
      "name": "getIsCreatedByOwner",
      "outputs": [
        {
          "internalType": "bool",
          "name": "",
          "type": "bool"
        }
      ],
      "stateMutability": "view",
      "type": "function"
    },
    {
      "inputs": [],
      "name": "getProjects",
      "outputs": [
        {
          "internalType": "string[]",
          "name": "",
          "type": "string[]"
        }
      ],
      "stateMutability": "view",
      "type": "function"
    },
    {
      "inputs": [],
      "name": "getSkills",
      "outputs": [
        {
          "internalType": "string[]",
          "name": "",
          "type": "string[]"
        }
      ],
      "stateMutability": "view",
      "type": "function"
    },
    {
      "inputs": [],
      "name": "getUserResume",
      "outputs": [
        {
          "components": [
            {
              "internalType": "string",
              "name": "name",
              "type": "string"
            },
            {
              "internalType": "string",
              "name": "email",
              "type": "string"
            },
            {
              "internalType": "string",
              "name": "github",
              "type": "string"
            },
            {
              "internalType": "string",
              "name": "about",
              "type": "string"
            },
            {
              "internalType": "string[]",
              "name": "skills",
              "type": "string[]"
            },
            {
              "internalType": "string[]",
              "name": "experiences",
              "type": "string[]"
            },
            {
              "internalType": "string[]",
              "name": "education",
              "type": "string[]"
            },
            {
              "internalType": "string[]",
              "name": "projects",
              "type": "string[]"
            }
          ],
          "internalType": "struct Resume.UserResume",
          "name": "",
          "type": "tuple"
        }
      ],
      "stateMutability": "view",
      "type": "function"
    },
    {
      "inputs": [
        {
          "internalType": "address",
          "name": "user",
          "type": "address"
        }
      ],
      "name": "getUserResumeByOwner",
      "outputs": [
        {
          "components": [
            {
              "internalType": "string",
              "name": "name",
              "type": "string"
            },
            {
              "internalType": "string",
              "name": "email",
              "type": "string"
            },
            {
              "internalType": "string",
              "name": "github",
              "type": "string"
            },
            {
              "internalType": "string",
              "name": "about",
              "type": "string"
            },
            {
              "internalType": "string[]",
              "name": "skills",
              "type": "string[]"
            },
            {
              "internalType": "string[]",
              "name": "experiences",
              "type": "string[]"
            },
            {
              "internalType": "string[]",
              "name": "education",
              "type": "string[]"
            },
            {
              "internalType": "string[]",
              "name": "projects",
              "type": "string[]"
            }
          ],
          "internalType": "struct Resume.UserResume",
          "name": "",
          "type": "tuple"
        }
      ],
      "stateMutability": "view",
      "type": "function"
    },
    {
      "inputs": [],
      "name": "owner",
      "outputs": [
        {
          "internalType": "address",
          "name": "",
          "type": "address"
        }
      ],
      "stateMutability": "view",
      "type": "function"
    },
    {
      "inputs": [],
      "name": "renounceOwnership",
      "outputs": [],
      "stateMutability": "nonpayable",
      "type": "function"
    },
    {
      "inputs": [
        {
          "internalType": "address",
          "name": "newOwner",
          "type": "address"
        }
      ],
      "name": "transferOwnership",
      "outputs": [],
      "stateMutability": "nonpayable",
      "type": "function"
    },
    {
      "inputs": [
        {
          "internalType": "string",
          "name": "name",
          "type": "string"
        },
        {
          "internalType": "string",
          "name": "email",
          "type": "string"
        },
        {
          "internalType": "string",
          "name": "github",
          "type": "string"
        },
        {
          "internalType": "string",
          "name": "about",
          "type": "string"
        },
        {
          "internalType": "string[]",
          "name": "skills",
          "type": "string[]"
        },
        {
          "internalType": "string[]",
          "name": "experiences",
          "type": "string[]"
        },
        {
          "internalType": "string[]",
          "name": "education",
          "type": "string[]"
        },
        {
          "internalType": "string[]",
          "name": "projects",
          "type": "string[]"
        }
      ],
      "name": "updateResume",
      "outputs": [],
      "stateMutability": "nonpayable",
      "type": "function"
    }
  ],
  "bytecode": "0x60806040523480156200001157600080fd5b5062000032620000266200003860201b60201c565b6200004060201b60201c565b62000104565b600033905090565b60008060009054906101000a900473ffffffffffffffffffffffffffffffffffffffff169050816000806101000a81548173ffffffffffffffffffffffffffffffffffffffff021916908373ffffffffffffffffffffffffffffffffffffffff1602179055508173ffffffffffffffffffffffffffffffffffffffff168173ffffffffffffffffffffffffffffffffffffffff167f8be0079c531659141344cd1fd0a4f28419497f9722a3daafe3b4186f6b6457e060405160405180910390a35050565b6132cb80620001146000396000f3fe608060405234801561001057600080fd5b50600436106101005760003560e01c8063a447a55611610097578063dcc6012811610066578063dcc6012814610275578063f1236ea114610293578063f2fde38b146102b1578063fdd76bb3146102cd57610100565b8063a447a556146101db578063c0682fa7146101f9578063c227296614610229578063c436f3591461025957610100565b80635cc43352116100d35780635cc433521461018b5780635f4e16bf146101a9578063715018a6146101b35780638da5cb5b146101bd57610100565b80631c41e2db146101055780633f07352d1461012357806341d346901461013f5780634c0c54e71461016f575b600080fd5b61010d6102eb565b60405161011a91906124e4565b60405180910390f35b61013d60048036038101906101389190612735565b610497565b005b61015960048036038101906101549190612929565b61070d565b6040516101669190612971565b60405180910390f35b61018960048036038101906101849190612735565b61076b565b005b610193610987565b6040516101a09190612af3565b60405180910390f35b6101b161101e565b005b6101bb611204565b005b6101c5611218565b6040516101d29190612b24565b60405180910390f35b6101e3611241565b6040516101f091906124e4565b60405180910390f35b610213600480360381019061020e9190612c02565b6113ed565b6040516102209190612971565b60405180910390f35b610243600480360381019061023e9190612929565b6114dc565b6040516102509190612af3565b60405180910390f35b610273600480360381019061026e9190612929565b611aea565b005b61027d611cd9565b60405161028a91906124e4565b60405180910390f35b61029b611e85565b6040516102a89190612971565b60405180910390f35b6102cb60048036038101906102c69190612929565b611ed9565b005b6102d5611f5c565b6040516102e291906124e4565b60405180910390f35b606060011515600260003373ffffffffffffffffffffffffffffffffffffffff1673ffffffffffffffffffffffffffffffffffffffff16815260200190815260200160002060009054906101000a900460ff16151514610380576040517f08c379a000000000000000000000000000000000000000000000000000000000815260040161037790612ca8565b60405180910390fd5b600160003373ffffffffffffffffffffffffffffffffffffffff1673ffffffffffffffffffffffffffffffffffffffff168152602001908152602001600020600601805480602002602001604051908101604052809291908181526020016000905b8282101561048e57838290600052602060002001805461040190612cf7565b80601f016020809104026020016040519081016040528092919081815260200182805461042d90612cf7565b801561047a5780601f1061044f5761010080835404028352916020019161047a565b820191906000526020600020905b81548152906001019060200180831161045d57829003601f168201915b5050505050815260200190600101906103e2565b50505050905090565b60001515600260003373ffffffffffffffffffffffffffffffffffffffff1673ffffffffffffffffffffffffffffffffffffffff16815260200190815260200160002060009054906101000a900460ff1615151461052a576040517f08c379a000000000000000000000000000000000000000000000000000000000815260040161052190612d74565b60405180910390fd5b60405180610100016040528089815260200188815260200187815260200186815260200185815260200184815260200183815260200182815250600160003373ffffffffffffffffffffffffffffffffffffffff1673ffffffffffffffffffffffffffffffffffffffff16815260200190815260200160002060008201518160000190816105b89190612f4a565b5060208201518160010190816105ce9190612f4a565b5060408201518160020190816105e49190612f4a565b5060608201518160030190816105fa9190612f4a565b506080820151816004019080519060200190610617929190612252565b5060a0820151816005019080519060200190610634929190612252565b5060c0820151816006019080519060200190610651929190612252565b5060e082015181600701908051906020019061066e929190612252565b509050506001600260003373ffffffffffffffffffffffffffffffffffffffff1673ffffffffffffffffffffffffffffffffffffffff16815260200190815260200160002060006101000a81548160ff0219169083151502179055507f8b9ccef87013e53572a34045553ebee04611206e0dd17b271be11c3c3f94c49633896040516106fb929190613055565b60405180910390a15050505050505050565b6000610717612108565b600260008373ffffffffffffffffffffffffffffffffffffffff1673ffffffffffffffffffffffffffffffffffffffff16815260200190815260200160002060009054906101000a900460ff169050919050565b60011515600260003373ffffffffffffffffffffffffffffffffffffffff1673ffffffffffffffffffffffffffffffffffffffff16815260200190815260200160002060009054906101000a900460ff161515146107fe576040517f08c379a00000000000000000000000000000000000000000000000000000000081526004016107f590612ca8565b60405180910390fd5b60405180610100016040528089815260200188815260200187815260200186815260200185815260200184815260200183815260200182815250600160003373ffffffffffffffffffffffffffffffffffffffff1673ffffffffffffffffffffffffffffffffffffffff168152602001908152602001600020600082015181600001908161088c9190612f4a565b5060208201518160010190816108a29190612f4a565b5060408201518160020190816108b89190612f4a565b5060608201518160030190816108ce9190612f4a565b5060808201518160040190805190602001906108eb929190612252565b5060a0820151816005019080519060200190610908929190612252565b5060c0820151816006019080519060200190610925929190612252565b5060e0820151816007019080519060200190610942929190612252565b509050507f59cc884a73335ab9a860dfcd2682722df89cd800a8ca5d005f437ca062c39ace336040516109759190612b24565b60405180910390a15050505050505050565b61098f6122ab565b60011515600260003373ffffffffffffffffffffffffffffffffffffffff1673ffffffffffffffffffffffffffffffffffffffff16815260200190815260200160002060009054906101000a900460ff16151514610a22576040517f08c379a0000000000000000000000000000000000000000000000000000000008152600401610a1990612ca8565b60405180910390fd5b600160003373ffffffffffffffffffffffffffffffffffffffff1673ffffffffffffffffffffffffffffffffffffffff16815260200190815260200160002060405180610100016040529081600082018054610a7d90612cf7565b80601f0160208091040260200160405190810160405280929190818152602001828054610aa990612cf7565b8015610af65780601f10610acb57610100808354040283529160200191610af6565b820191906000526020600020905b815481529060010190602001808311610ad957829003601f168201915b50505050508152602001600182018054610b0f90612cf7565b80601f0160208091040260200160405190810160405280929190818152602001828054610b3b90612cf7565b8015610b885780601f10610b5d57610100808354040283529160200191610b88565b820191906000526020600020905b815481529060010190602001808311610b6b57829003601f168201915b50505050508152602001600282018054610ba190612cf7565b80601f0160208091040260200160405190810160405280929190818152602001828054610bcd90612cf7565b8015610c1a5780601f10610bef57610100808354040283529160200191610c1a565b820191906000526020600020905b815481529060010190602001808311610bfd57829003601f168201915b50505050508152602001600382018054610c3390612cf7565b80601f0160208091040260200160405190810160405280929190818152602001828054610c5f90612cf7565b8015610cac5780601f10610c8157610100808354040283529160200191610cac565b820191906000526020600020905b815481529060010190602001808311610c8f57829003601f168201915b5050505050815260200160048201805480602002602001604051908101604052809291908181526020016000905b82821015610d86578382906000526020600020018054610cf990612cf7565b80601f0160208091040260200160405190810160405280929190818152602001828054610d2590612cf7565b8015610d725780601f10610d4757610100808354040283529160200191610d72565b820191906000526020600020905b815481529060010190602001808311610d5557829003601f168201915b505050505081526020019060010190610cda565b50505050815260200160058201805480602002602001604051908101604052809291908181526020016000905b82821015610e5f578382906000526020600020018054610dd290612cf7565b80601f0160208091040260200160405190810160405280929190818152602001828054610dfe90612cf7565b8015610e4b5780601f10610e2057610100808354040283529160200191610e4b565b820191906000526020600020905b815481529060010190602001808311610e2e57829003601f168201915b505050505081526020019060010190610db3565b50505050815260200160068201805480602002602001604051908101604052809291908181526020016000905b82821015610f38578382906000526020600020018054610eab90612cf7565b80601f0160208091040260200160405190810160405280929190818152602001828054610ed790612cf7565b8015610f245780601f10610ef957610100808354040283529160200191610f24565b820191906000526020600020905b815481529060010190602001808311610f0757829003601f168201915b505050505081526020019060010190610e8c565b50505050815260200160078201805480602002602001604051908101604052809291908181526020016000905b82821015611011578382906000526020600020018054610f8490612cf7565b80601f0160208091040260200160405190810160405280929190818152602001828054610fb090612cf7565b8015610ffd5780601f10610fd257610100808354040283529160200191610ffd565b820191906000526020600020905b815481529060010190602001808311610fe057829003601f168201915b505050505081526020019060010190610f65565b5050505081525050905090565b60011515600260003373ffffffffffffffffffffffffffffffffffffffff1673ffffffffffffffffffffffffffffffffffffffff16815260200190815260200160002060009054906101000a900460ff161515146110b1576040517f08c379a00000000000000000000000000000000000000000000000000000000081526004016110a890612ca8565b60405180910390fd5b600160003373ffffffffffffffffffffffffffffffffffffffff1673ffffffffffffffffffffffffffffffffffffffff1681526020019081526020016000206000808201600061110191906122f0565b60018201600061111191906122f0565b60028201600061112191906122f0565b60038201600061113191906122f0565b6004820160006111419190612330565b6005820160006111519190612330565b6006820160006111619190612330565b6007820160006111719190612330565b50506000600260003373ffffffffffffffffffffffffffffffffffffffff1673ffffffffffffffffffffffffffffffffffffffff16815260200190815260200160002060006101000a81548160ff0219169083151502179055507f3d4eb69a81945f552caa8fec3643734209000bef971fafef356519ac585cc4ba336040516111fa9190612b24565b60405180910390a1565b61120c612108565b6112166000612186565b565b60008060009054906101000a900473ffffffffffffffffffffffffffffffffffffffff16905090565b606060011515600260003373ffffffffffffffffffffffffffffffffffffffff1673ffffffffffffffffffffffffffffffffffffffff16815260200190815260200160002060009054906101000a900460ff161515146112d6576040517f08c379a00000000000000000000000000000000000000000000000000000000081526004016112cd90612ca8565b60405180910390fd5b600160003373ffffffffffffffffffffffffffffffffffffffff1673ffffffffffffffffffffffffffffffffffffffff168152602001908152602001600020600501805480602002602001604051908101604052809291908181526020016000905b828210156113e457838290600052602060002001805461135790612cf7565b80601f016020809104026020016040519081016040528092919081815260200182805461138390612cf7565b80156113d05780601f106113a5576101008083540402835291602001916113d0565b820191906000526020600020905b8154815290600101906020018083116113b357829003601f168201915b505050505081526020019060010190611338565b50505050905090565b60006113f7612108565b600082511161143b576040517f08c379a0000000000000000000000000000000000000000000000000000000008152600401611432906130d1565b60405180910390fd5b60006001905060005b83518110156114d2578180156114bd57506002600085838151811061146c5761146b6130f1565b5b602002602001015173ffffffffffffffffffffffffffffffffffffffff1673ffffffffffffffffffffffffffffffffffffffff16815260200190815260200160002060009054906101000a900460ff165b915080806114ca9061314f565b915050611444565b5080915050919050565b6114e46122ab565b6114ec612108565b600160008373ffffffffffffffffffffffffffffffffffffffff1673ffffffffffffffffffffffffffffffffffffffff1681526020019081526020016000206040518061010001604052908160008201805461154790612cf7565b80601f016020809104026020016040519081016040528092919081815260200182805461157390612cf7565b80156115c05780601f10611595576101008083540402835291602001916115c0565b820191906000526020600020905b8154815290600101906020018083116115a357829003601f168201915b505050505081526020016001820180546115d990612cf7565b80601f016020809104026020016040519081016040528092919081815260200182805461160590612cf7565b80156116525780601f1061162757610100808354040283529160200191611652565b820191906000526020600020905b81548152906001019060200180831161163557829003601f168201915b5050505050815260200160028201805461166b90612cf7565b80601f016020809104026020016040519081016040528092919081815260200182805461169790612cf7565b80156116e45780601f106116b9576101008083540402835291602001916116e4565b820191906000526020600020905b8154815290600101906020018083116116c757829003601f168201915b505050505081526020016003820180546116fd90612cf7565b80601f016020809104026020016040519081016040528092919081815260200182805461172990612cf7565b80156117765780601f1061174b57610100808354040283529160200191611776565b820191906000526020600020905b81548152906001019060200180831161175957829003601f168201915b5050505050815260200160048201805480602002602001604051908101604052809291908181526020016000905b828210156118505783829060005260206000200180546117c390612cf7565b80601f01602080910402602001604051908101604052809291908181526020018280546117ef90612cf7565b801561183c5780601f106118115761010080835404028352916020019161183c565b820191906000526020600020905b81548152906001019060200180831161181f57829003601f168201915b5050505050815260200190600101906117a4565b50505050815260200160058201805480602002602001604051908101604052809291908181526020016000905b8282101561192957838290600052602060002001805461189c90612cf7565b80601f01602080910402602001604051908101604052809291908181526020018280546118c890612cf7565b80156119155780601f106118ea57610100808354040283529160200191611915565b820191906000526020600020905b8154815290600101906020018083116118f857829003601f168201915b50505050508152602001906001019061187d565b50505050815260200160068201805480602002602001604051908101604052809291908181526020016000905b82821015611a0257838290600052602060002001805461197590612cf7565b80601f01602080910402602001604051908101604052809291908181526020018280546119a190612cf7565b80156119ee5780601f106119c3576101008083540402835291602001916119ee565b820191906000526020600020905b8154815290600101906020018083116119d157829003601f168201915b505050505081526020019060010190611956565b50505050815260200160078201805480602002602001604051908101604052809291908181526020016000905b82821015611adb578382906000526020600020018054611a4e90612cf7565b80601f0160208091040260200160405190810160405280929190818152602001828054611a7a90612cf7565b8015611ac75780601f10611a9c57610100808354040283529160200191611ac7565b820191906000526020600020905b815481529060010190602001808311611aaa57829003601f168201915b505050505081526020019060010190611a2f565b50505050815250509050919050565b611af2612108565b60011515600260008373ffffffffffffffffffffffffffffffffffffffff1673ffffffffffffffffffffffffffffffffffffffff16815260200190815260200160002060009054906101000a900460ff16151514611b85576040517f08c379a0000000000000000000000000000000000000000000000000000000008152600401611b7c90612ca8565b60405180910390fd5b600160008273ffffffffffffffffffffffffffffffffffffffff1673ffffffffffffffffffffffffffffffffffffffff16815260200190815260200160002060008082016000611bd591906122f0565b600182016000611be591906122f0565b600282016000611bf591906122f0565b600382016000611c0591906122f0565b600482016000611c159190612330565b600582016000611c259190612330565b600682016000611c359190612330565b600782016000611c459190612330565b50506000600260008373ffffffffffffffffffffffffffffffffffffffff1673ffffffffffffffffffffffffffffffffffffffff16815260200190815260200160002060006101000a81548160ff0219169083151502179055507f3d4eb69a81945f552caa8fec3643734209000bef971fafef356519ac585cc4ba33604051611cce9190612b24565b60405180910390a150565b606060011515600260003373ffffffffffffffffffffffffffffffffffffffff1673ffffffffffffffffffffffffffffffffffffffff16815260200190815260200160002060009054906101000a900460ff16151514611d6e576040517f08c379a0000000000000000000000000000000000000000000000000000000008152600401611d6590612ca8565b60405180910390fd5b600160003373ffffffffffffffffffffffffffffffffffffffff1673ffffffffffffffffffffffffffffffffffffffff168152602001908152602001600020600701805480602002602001604051908101604052809291908181526020016000905b82821015611e7c578382906000526020600020018054611def90612cf7565b80601f0160208091040260200160405190810160405280929190818152602001828054611e1b90612cf7565b8015611e685780601f10611e3d57610100808354040283529160200191611e68565b820191906000526020600020905b815481529060010190602001808311611e4b57829003601f168201915b505050505081526020019060010190611dd0565b50505050905090565b6000600260003373ffffffffffffffffffffffffffffffffffffffff1673ffffffffffffffffffffffffffffffffffffffff16815260200190815260200160002060009054906101000a900460ff16905090565b611ee1612108565b600073ffffffffffffffffffffffffffffffffffffffff168173ffffffffffffffffffffffffffffffffffffffff1603611f50576040517f08c379a0000000000000000000000000000000000000000000000000000000008152600401611f4790613209565b60405180910390fd5b611f5981612186565b50565b606060011515600260003373ffffffffffffffffffffffffffffffffffffffff1673ffffffffffffffffffffffffffffffffffffffff16815260200190815260200160002060009054906101000a900460ff16151514611ff1576040517f08c379a0000000000000000000000000000000000000000000000000000000008152600401611fe890612ca8565b60405180910390fd5b600160003373ffffffffffffffffffffffffffffffffffffffff1673ffffffffffffffffffffffffffffffffffffffff168152602001908152602001600020600401805480602002602001604051908101604052809291908181526020016000905b828210156120ff57838290600052602060002001805461207290612cf7565b80601f016020809104026020016040519081016040528092919081815260200182805461209e90612cf7565b80156120eb5780601f106120c0576101008083540402835291602001916120eb565b820191906000526020600020905b8154815290600101906020018083116120ce57829003601f168201915b505050505081526020019060010190612053565b50505050905090565b61211061224a565b73ffffffffffffffffffffffffffffffffffffffff1661212e611218565b73ffffffffffffffffffffffffffffffffffffffff1614612184576040517f08c379a000000000000000000000000000000000000000000000000000000000815260040161217b90613275565b60405180910390fd5b565b60008060009054906101000a900473ffffffffffffffffffffffffffffffffffffffff169050816000806101000a81548173ffffffffffffffffffffffffffffffffffffffff021916908373ffffffffffffffffffffffffffffffffffffffff1602179055508173ffffffffffffffffffffffffffffffffffffffff168173ffffffffffffffffffffffffffffffffffffffff167f8be0079c531659141344cd1fd0a4f28419497f9722a3daafe3b4186f6b6457e060405160405180910390a35050565b600033905090565b82805482825590600052602060002090810192821561229a579160200282015b828111156122995782518290816122899190612f4a565b5091602001919060010190612272565b5b5090506122a79190612351565b5090565b60405180610100016040528060608152602001606081526020016060815260200160608152602001606081526020016060815260200160608152602001606081525090565b5080546122fc90612cf7565b6000825580601f1061230e575061232d565b601f01602090049060005260206000209081019061232c9190612375565b5b50565b508054600082559060005260206000209081019061234e9190612351565b50565b5b80821115612371576000818161236891906122f0565b50600101612352565b5090565b5b8082111561238e576000816000905550600101612376565b5090565b600081519050919050565b600082825260208201905092915050565b6000819050602082019050919050565b600081519050919050565b600082825260208201905092915050565b60005b838110156123f85780820151818401526020810190506123dd565b60008484015250505050565b6000601f19601f8301169050919050565b6000612420826123be565b61242a81856123c9565b935061243a8185602086016123da565b61244381612404565b840191505092915050565b600061245a8383612415565b905092915050565b6000602082019050919050565b600061247a82612392565b612484818561239d565b935083602082028501612496856123ae565b8060005b858110156124d257848403895281516124b3858261244e565b94506124be83612462565b925060208a0199505060018101905061249a565b50829750879550505050505092915050565b600060208201905081810360008301526124fe818461246f565b905092915050565b6000604051905090565b600080fd5b600080fd5b600080fd5b600080fd5b7f4e487b7100000000000000000000000000000000000000000000000000000000600052604160045260246000fd5b61255c82612404565b810181811067ffffffffffffffff8211171561257b5761257a612524565b5b80604052505050565b600061258e612506565b905061259a8282612553565b919050565b600067ffffffffffffffff8211156125ba576125b9612524565b5b6125c382612404565b9050602081019050919050565b82818337600083830152505050565b60006125f26125ed8461259f565b612584565b90508281526020810184848401111561260e5761260d61251f565b5b6126198482856125d0565b509392505050565b600082601f8301126126365761263561251a565b5b81356126468482602086016125df565b91505092915050565b600067ffffffffffffffff82111561266a57612669612524565b5b602082029050602081019050919050565b600080fd5b600061269361268e8461264f565b612584565b905080838252602082019050602084028301858111156126b6576126b561267b565b5b835b818110156126fd57803567ffffffffffffffff8111156126db576126da61251a565b5b8086016126e88982612621565b855260208501945050506020810190506126b8565b5050509392505050565b600082601f83011261271c5761271b61251a565b5b813561272c848260208601612680565b91505092915050565b600080600080600080600080610100898b03121561275657612755612510565b5b600089013567ffffffffffffffff81111561277457612773612515565b5b6127808b828c01612621565b985050602089013567ffffffffffffffff8111156127a1576127a0612515565b5b6127ad8b828c01612621565b975050604089013567ffffffffffffffff8111156127ce576127cd612515565b5b6127da8b828c01612621565b965050606089013567ffffffffffffffff8111156127fb576127fa612515565b5b6128078b828c01612621565b955050608089013567ffffffffffffffff81111561282857612827612515565b5b6128348b828c01612707565b94505060a089013567ffffffffffffffff81111561285557612854612515565b5b6128618b828c01612707565b93505060c089013567ffffffffffffffff81111561288257612881612515565b5b61288e8b828c01612707565b92505060e089013567ffffffffffffffff8111156128af576128ae612515565b5b6128bb8b828c01612707565b9150509295985092959890939650565b600073ffffffffffffffffffffffffffffffffffffffff82169050919050565b60006128f6826128cb565b9050919050565b612906816128eb565b811461291157600080fd5b50565b600081359050612923816128fd565b92915050565b60006020828403121561293f5761293e612510565b5b600061294d84828501612914565b91505092915050565b60008115159050919050565b61296b81612956565b82525050565b60006020820190506129866000830184612962565b92915050565b600082825260208201905092915050565b60006129a882612392565b6129b2818561298c565b9350836020820285016129c4856123ae565b8060005b85811015612a0057848403895281516129e1858261244e565b94506129ec83612462565b925060208a019950506001810190506129c8565b50829750879550505050505092915050565b6000610100830160008301518482036000860152612a308282612415565b91505060208301518482036020860152612a4a8282612415565b91505060408301518482036040860152612a648282612415565b91505060608301518482036060860152612a7e8282612415565b91505060808301518482036080860152612a98828261299d565b91505060a083015184820360a0860152612ab2828261299d565b91505060c083015184820360c0860152612acc828261299d565b91505060e083015184820360e0860152612ae6828261299d565b9150508091505092915050565b60006020820190508181036000830152612b0d8184612a12565b905092915050565b612b1e816128eb565b82525050565b6000602082019050612b396000830184612b15565b92915050565b600067ffffffffffffffff821115612b5a57612b59612524565b5b602082029050602081019050919050565b6000612b7e612b7984612b3f565b612584565b90508083825260208201905060208402830185811115612ba157612ba061267b565b5b835b81811015612bca5780612bb68882612914565b845260208401935050602081019050612ba3565b5050509392505050565b600082601f830112612be957612be861251a565b5b8135612bf9848260208601612b6b565b91505092915050565b600060208284031215612c1857612c17612510565b5b600082013567ffffffffffffffff811115612c3657612c35612515565b5b612c4284828501612bd4565b91505092915050565b600082825260208201905092915050565b7f526573756d653a20526573756d65206e6f742065786973740000000000000000600082015250565b6000612c92601883612c4b565b9150612c9d82612c5c565b602082019050919050565b60006020820190508181036000830152612cc181612c85565b9050919050565b7f4e487b7100000000000000000000000000000000000000000000000000000000600052602260045260246000fd5b60006002820490506001821680612d0f57607f821691505b602082108103612d2257612d21612cc8565b5b50919050565b7f526573756d653a20526573756d6520616c726561647920657869737400000000600082015250565b6000612d5e601c83612c4b565b9150612d6982612d28565b602082019050919050565b60006020820190508181036000830152612d8d81612d51565b9050919050565b60008190508160005260206000209050919050565b60006020601f8301049050919050565b600082821b905092915050565b600060088302612df67fffffffffffffffffffffffffffffffffffffffffffffffffffffffffffffffff82612db9565b612e008683612db9565b95508019841693508086168417925050509392505050565b6000819050919050565b6000819050919050565b6000612e47612e42612e3d84612e18565b612e22565b612e18565b9050919050565b6000819050919050565b612e6183612e2c565b612e75612e6d82612e4e565b848454612dc6565b825550505050565b600090565b612e8a612e7d565b612e95818484612e58565b505050565b5b81811015612eb957612eae600082612e82565b600181019050612e9b565b5050565b601f821115612efe57612ecf81612d94565b612ed884612da9565b81016020851015612ee7578190505b612efb612ef385612da9565b830182612e9a565b50505b505050565b600082821c905092915050565b6000612f2160001984600802612f03565b1980831691505092915050565b6000612f3a8383612f10565b9150826002028217905092915050565b612f53826123be565b67ffffffffffffffff811115612f6c57612f6b612524565b5b612f768254612cf7565b612f81828285612ebd565b600060209050601f831160018114612fb45760008415612fa2578287015190505b612fac8582612f2e565b865550613014565b601f198416612fc286612d94565b60005b82811015612fea57848901518255600182019150602085019450602081019050612fc5565b868310156130075784890151613003601f891682612f10565b8355505b6001600288020188555050505b505050505050565b6000613027826123be565b6130318185612c4b565b93506130418185602086016123da565b61304a81612404565b840191505092915050565b600060408201905061306a6000830185612b15565b818103602083015261307c818461301c565b90509392505050565b7f526573756d653a206c69737420697320656d7074790000000000000000000000600082015250565b60006130bb601583612c4b565b91506130c682613085565b602082019050919050565b600060208201905081810360008301526130ea816130ae565b9050919050565b7f4e487b7100000000000000000000000000000000000000000000000000000000600052603260045260246000fd5b7f4e487b7100000000000000000000000000000000000000000000000000000000600052601160045260246000fd5b600061315a82612e18565b91507fffffffffffffffffffffffffffffffffffffffffffffffffffffffffffffffff820361318c5761318b613120565b5b600182019050919050565b7f4f776e61626c653a206e6577206f776e657220697320746865207a65726f206160008201527f6464726573730000000000000000000000000000000000000000000000000000602082015250565b60006131f3602683612c4b565b91506131fe82613197565b604082019050919050565b60006020820190508181036000830152613222816131e6565b9050919050565b7f4f776e61626c653a2063616c6c6572206973206e6f7420746865206f776e6572600082015250565b600061325f602083612c4b565b915061326a82613229565b602082019050919050565b6000602082019050818103600083015261328e81613252565b905091905056fea2646970667358221220b178832a9957f0b26503f2a67337fc14d6566b539aac9555272dbcbacb2abc8b64736f6c63430008130033",
  "linkReferences": {},
  "deployedLinkReferences": {}
}