{
  "_format": "hh-sol-artifact-1",
  "contractName": "Resume",
  "sourceName": "contracts/Resume.sol",
  "abi": [
    {
      "inputs": [],
      "stateMutability": "nonpayable",
      "type": "constructor"
    },
    {
      "anonymous": false,
      "inputs": [
        {
          "indexed": false,
          "internalType": "address",
          "name": "user",
          "type": "address"
        },
        {
          "indexed": false,
          "internalType": "string",
          "name": "name",
          "type": "string"
        }
      ],
      "name": "CreateResume",
      "type": "event"
    },
    {
      "anonymous": false,
      "inputs": [
        {
          "indexed": false,
          "internalType": "address",
          "name": "user",
          "type": "address"
        }
      ],
      "name": "DeleteResume",
      "type": "event"
    },
    {
      "anonymous": false,
      "inputs": [
        {
          "indexed": true,
          "internalType": "address",
          "name": "previousOwner",
          "type": "address"
        },
        {
          "indexed": true,
          "internalType": "address",
          "name": "newOwner",
          "type": "address"
        }
      ],
      "name": "OwnershipTransferred",
      "type": "event"
    },
    {
      "anonymous": false,
      "inputs": [
        {
          "indexed": false,
          "internalType": "address",
          "name": "user",
          "type": "address"
        },
        {
          "indexed": false,
          "internalType": "string",
          "name": "columnName",
          "type": "string"
        },
        {
          "indexed": false,
          "internalType": "string",
          "name": "value",
          "type": "string"
        }
      ],
      "name": "UpdateResume",
      "type": "event"
    },
    {
      "anonymous": false,
      "inputs": [
        {
          "indexed": false,
          "internalType": "address",
          "name": "user",
          "type": "address"
        },
        {
          "indexed": false,
          "internalType": "string",
          "name": "columnName",
          "type": "string"
        },
        {
          "indexed": false,
          "internalType": "string[]",
          "name": "value",
          "type": "string[]"
        }
      ],
      "name": "UpdateResumeArray",
      "type": "event"
    },
    {
      "inputs": [
        {
          "internalType": "string",
          "name": "name",
          "type": "string"
        },
        {
          "internalType": "string",
          "name": "email",
          "type": "string"
        },
        {
          "internalType": "string",
          "name": "github",
          "type": "string"
        },
        {
          "internalType": "string",
          "name": "about",
          "type": "string"
        },
        {
          "internalType": "string[]",
          "name": "skills",
          "type": "string[]"
        },
        {
          "internalType": "string[]",
          "name": "experiences",
          "type": "string[]"
        },
        {
          "internalType": "string[]",
          "name": "education",
          "type": "string[]"
        },
        {
          "internalType": "string[]",
          "name": "projects",
          "type": "string[]"
        }
      ],
      "name": "addResume",
      "outputs": [],
      "stateMutability": "nonpayable",
      "type": "function"
    },
    {
      "inputs": [
        {
          "internalType": "address[]",
          "name": "list",
          "type": "address[]"
        }
      ],
      "name": "checkListCreated",
      "outputs": [
        {
          "internalType": "bool",
          "name": "",
          "type": "bool"
        }
      ],
      "stateMutability": "view",
      "type": "function"
    },
    {
      "inputs": [],
      "name": "deleteResume",
      "outputs": [],
      "stateMutability": "nonpayable",
      "type": "function"
    },
    {
      "inputs": [
        {
          "internalType": "address",
          "name": "user",
          "type": "address"
        }
      ],
      "name": "deleteResumeByOwner",
      "outputs": [],
      "stateMutability": "nonpayable",
      "type": "function"
    },
    {
      "inputs": [],
      "name": "getEducation",
      "outputs": [
        {
          "internalType": "string[]",
          "name": "",
          "type": "string[]"
        }
      ],
      "stateMutability": "view",
      "type": "function"
    },
    {
      "inputs": [],
      "name": "getExperiences",
      "outputs": [
        {
          "internalType": "string[]",
          "name": "",
          "type": "string[]"
        }
      ],
      "stateMutability": "view",
      "type": "function"
    },
    {
      "inputs": [
        {
          "internalType": "address",
          "name": "user",
          "type": "address"
        }
      ],
      "name": "getIsCreatedByOwner",
      "outputs": [
        {
          "internalType": "bool",
          "name": "",
          "type": "bool"
        }
      ],
      "stateMutability": "view",
      "type": "function"
    },
    {
      "inputs": [],
      "name": "getProjects",
      "outputs": [
        {
          "internalType": "string[]",
          "name": "",
          "type": "string[]"
        }
      ],
      "stateMutability": "view",
      "type": "function"
    },
    {
      "inputs": [],
      "name": "getSkills",
      "outputs": [
        {
          "internalType": "string[]",
          "name": "",
          "type": "string[]"
        }
      ],
      "stateMutability": "view",
      "type": "function"
    },
    {
      "inputs": [],
      "name": "getUserResume",
      "outputs": [
        {
          "components": [
            {
              "internalType": "string",
              "name": "name",
              "type": "string"
            },
            {
              "internalType": "string",
              "name": "email",
              "type": "string"
            },
            {
              "internalType": "string",
              "name": "github",
              "type": "string"
            },
            {
              "internalType": "string",
              "name": "about",
              "type": "string"
            },
            {
              "internalType": "string[]",
              "name": "skills",
              "type": "string[]"
            },
            {
              "internalType": "string[]",
              "name": "experiences",
              "type": "string[]"
            },
            {
              "internalType": "string[]",
              "name": "education",
              "type": "string[]"
            },
            {
              "internalType": "string[]",
              "name": "projects",
              "type": "string[]"
            }
          ],
          "internalType": "struct Resume.UserResume",
          "name": "",
          "type": "tuple"
        }
      ],
      "stateMutability": "view",
      "type": "function"
    },
    {
      "inputs": [
        {
          "internalType": "address",
          "name": "user",
          "type": "address"
        }
      ],
      "name": "getUserResumeByOwner",
      "outputs": [
        {
          "components": [
            {
              "internalType": "string",
              "name": "name",
              "type": "string"
            },
            {
              "internalType": "string",
              "name": "email",
              "type": "string"
            },
            {
              "internalType": "string",
              "name": "github",
              "type": "string"
            },
            {
              "internalType": "string",
              "name": "about",
              "type": "string"
            },
            {
              "internalType": "string[]",
              "name": "skills",
              "type": "string[]"
            },
            {
              "internalType": "string[]",
              "name": "experiences",
              "type": "string[]"
            },
            {
              "internalType": "string[]",
              "name": "education",
              "type": "string[]"
            },
            {
              "internalType": "string[]",
              "name": "projects",
              "type": "string[]"
            }
          ],
          "internalType": "struct Resume.UserResume",
          "name": "",
          "type": "tuple"
        }
      ],
      "stateMutability": "view",
      "type": "function"
    },
    {
      "inputs": [],
      "name": "owner",
      "outputs": [
        {
          "internalType": "address",
          "name": "",
          "type": "address"
        }
      ],
      "stateMutability": "view",
      "type": "function"
    },
    {
      "inputs": [],
      "name": "renounceOwnership",
      "outputs": [],
      "stateMutability": "nonpayable",
      "type": "function"
    },
    {
      "inputs": [
        {
          "internalType": "address",
          "name": "newOwner",
          "type": "address"
        }
      ],
      "name": "transferOwnership",
      "outputs": [],
      "stateMutability": "nonpayable",
      "type": "function"
    },
    {
      "inputs": [
        {
          "internalType": "string",
          "name": "about",
          "type": "string"
        }
      ],
      "name": "updateAbout",
      "outputs": [],
      "stateMutability": "nonpayable",
      "type": "function"
    },
    {
      "inputs": [
        {
          "internalType": "string[]",
          "name": "education",
          "type": "string[]"
        }
      ],
      "name": "updateEducation",
      "outputs": [],
      "stateMutability": "nonpayable",
      "type": "function"
    },
    {
      "inputs": [
        {
          "internalType": "string",
          "name": "email",
          "type": "string"
        }
      ],
      "name": "updateEmail",
      "outputs": [],
      "stateMutability": "nonpayable",
      "type": "function"
    },
    {
      "inputs": [
        {
          "internalType": "string[]",
          "name": "experiences",
          "type": "string[]"
        }
      ],
      "name": "updateExperiences",
      "outputs": [],
      "stateMutability": "nonpayable",
      "type": "function"
    },
    {
      "inputs": [
        {
          "internalType": "string",
          "name": "github",
          "type": "string"
        }
      ],
      "name": "updateGithub",
      "outputs": [],
      "stateMutability": "nonpayable",
      "type": "function"
    },
    {
      "inputs": [
        {
          "internalType": "string",
          "name": "name",
          "type": "string"
        }
      ],
      "name": "updateName",
      "outputs": [],
      "stateMutability": "nonpayable",
      "type": "function"
    },
    {
      "inputs": [
        {
          "internalType": "string[]",
          "name": "projects",
          "type": "string[]"
        }
      ],
      "name": "updateProjects",
      "outputs": [],
      "stateMutability": "nonpayable",
      "type": "function"
    },
    {
      "inputs": [
        {
          "internalType": "string[]",
          "name": "skills",
          "type": "string[]"
        }
      ],
      "name": "updateSkills",
      "outputs": [],
      "stateMutability": "nonpayable",
      "type": "function"
    }
  ],
  "bytecode": "0x60806040523480156200001157600080fd5b5062000032620000266200003860201b60201c565b6200004060201b60201c565b62000104565b600033905090565b60008060009054906101000a900473ffffffffffffffffffffffffffffffffffffffff169050816000806101000a81548173ffffffffffffffffffffffffffffffffffffffff021916908373ffffffffffffffffffffffffffffffffffffffff1602179055508173ffffffffffffffffffffffffffffffffffffffff168173ffffffffffffffffffffffffffffffffffffffff167f8be0079c531659141344cd1fd0a4f28419497f9722a3daafe3b4186f6b6457e060405160405180910390a35050565b613f6180620001146000396000f3fe608060405234801561001057600080fd5b50600436106101425760003560e01c8063a447a556116100b8578063cb46d9b01161007c578063cb46d9b014610327578063dcc6012814610343578063df38512d14610361578063f06099af1461037d578063f2fde38b14610399578063fdd76bb3146103b557610142565b8063a447a55614610271578063bad1fb901461028f578063c0682fa7146102ab578063c2272966146102db578063c436f3591461030b57610142565b806341d346901161010a57806341d34690146101d55780635cc43352146102055780635f4e16bf14610223578063715018a61461022d57806384da92a7146102375780638da5cb5b1461025357610142565b80631c41e2db1461014757806322e5fde3146101655780632faf7b18146101815780633d3871c71461019d5780633f07352d146101b9575b600080fd5b61014f6103d3565b60405161015c9190612c70565b60405180910390f35b61017f600480360381019061017a9190612ddb565b61057f565b005b61019b60048036038101906101969190612f0a565b61069e565b005b6101b760048036038101906101b29190612f0a565b6107c4565b005b6101d360048036038101906101ce9190612f53565b6108ea565b005b6101ef60048036038101906101ea9190613147565b610b60565b6040516101fc919061318f565b60405180910390f35b61020d610bbe565b60405161021a9190613311565b60405180910390f35b61022b611255565b005b61023561143b565b005b610251600480360381019061024c9190612ddb565b61144f565b005b61025b61156e565b6040516102689190613342565b60405180910390f35b610279611597565b6040516102869190612c70565b60405180910390f35b6102a960048036038101906102a49190612ddb565b611743565b005b6102c560048036038101906102c09190613420565b611862565b6040516102d2919061318f565b60405180910390f35b6102f560048036038101906102f09190613147565b611951565b6040516103029190613311565b60405180910390f35b61032560048036038101906103209190613147565b611f5f565b005b610341600480360381019061033c9190612f0a565b61214e565b005b61034b612274565b6040516103589190612c70565b60405180910390f35b61037b60048036038101906103769190612f0a565b612420565b005b61039760048036038101906103929190612ddb565b612546565b005b6103b360048036038101906103ae9190613147565b612665565b005b6103bd6126e8565b6040516103ca9190612c70565b60405180910390f35b606060011515600260003373ffffffffffffffffffffffffffffffffffffffff1673ffffffffffffffffffffffffffffffffffffffff16815260200190815260200160002060009054906101000a900460ff16151514610468576040517f08c379a000000000000000000000000000000000000000000000000000000000815260040161045f906134c6565b60405180910390fd5b600160003373ffffffffffffffffffffffffffffffffffffffff1673ffffffffffffffffffffffffffffffffffffffff168152602001908152602001600020600601805480602002602001604051908101604052809291908181526020016000905b828210156105765783829060005260206000200180546104e990613515565b80601f016020809104026020016040519081016040528092919081815260200182805461051590613515565b80156105625780601f1061053757610100808354040283529160200191610562565b820191906000526020600020905b81548152906001019060200180831161054557829003601f168201915b5050505050815260200190600101906104ca565b50505050905090565b60011515600260003373ffffffffffffffffffffffffffffffffffffffff1673ffffffffffffffffffffffffffffffffffffffff16815260200190815260200160002060009054906101000a900460ff16151514610612576040517f08c379a0000000000000000000000000000000000000000000000000000000008152600401610609906134c6565b60405180910390fd5b80600160003373ffffffffffffffffffffffffffffffffffffffff1673ffffffffffffffffffffffffffffffffffffffff168152602001908152602001600020600201908161066191906136fc565b507f5bddc95207207a469491b93ac482ec9c60f6df54ee5ca815fe88565326ffb9e63382604051610693929190613853565b60405180910390a150565b60011515600260003373ffffffffffffffffffffffffffffffffffffffff1673ffffffffffffffffffffffffffffffffffffffff16815260200190815260200160002060009054906101000a900460ff16151514610731576040517f08c379a0000000000000000000000000000000000000000000000000000000008152600401610728906134c6565b60405180910390fd5b80600160003373ffffffffffffffffffffffffffffffffffffffff1673ffffffffffffffffffffffffffffffffffffffff16815260200190815260200160002060060190805190602001906107879291906129de565b507fa1331ace9e1990c713e2183cd5dddf7c55cf0d36c9ca758df6aaef3609723a2c33826040516107b99291906138e2565b60405180910390a150565b60011515600260003373ffffffffffffffffffffffffffffffffffffffff1673ffffffffffffffffffffffffffffffffffffffff16815260200190815260200160002060009054906101000a900460ff16151514610857576040517f08c379a000000000000000000000000000000000000000000000000000000000815260040161084e906134c6565b60405180910390fd5b80600160003373ffffffffffffffffffffffffffffffffffffffff1673ffffffffffffffffffffffffffffffffffffffff16815260200190815260200160002060040190805190602001906108ad9291906129de565b507fa1331ace9e1990c713e2183cd5dddf7c55cf0d36c9ca758df6aaef3609723a2c33826040516108df929190613971565b60405180910390a150565b60001515600260003373ffffffffffffffffffffffffffffffffffffffff1673ffffffffffffffffffffffffffffffffffffffff16815260200190815260200160002060009054906101000a900460ff1615151461097d576040517f08c379a000000000000000000000000000000000000000000000000000000000815260040161097490613a00565b60405180910390fd5b60405180610100016040528089815260200188815260200187815260200186815260200185815260200184815260200183815260200182815250600160003373ffffffffffffffffffffffffffffffffffffffff1673ffffffffffffffffffffffffffffffffffffffff1681526020019081526020016000206000820151816000019081610a0b91906136fc565b506020820151816001019081610a2191906136fc565b506040820151816002019081610a3791906136fc565b506060820151816003019081610a4d91906136fc565b506080820151816004019080519060200190610a6a9291906129de565b5060a0820151816005019080519060200190610a879291906129de565b5060c0820151816006019080519060200190610aa49291906129de565b5060e0820151816007019080519060200190610ac19291906129de565b509050506001600260003373ffffffffffffffffffffffffffffffffffffffff1673ffffffffffffffffffffffffffffffffffffffff16815260200190815260200160002060006101000a81548160ff0219169083151502179055507f8b9ccef87013e53572a34045553ebee04611206e0dd17b271be11c3c3f94c4963389604051610b4e929190613a20565b60405180910390a15050505050505050565b6000610b6a612894565b600260008373ffffffffffffffffffffffffffffffffffffffff1673ffffffffffffffffffffffffffffffffffffffff16815260200190815260200160002060009054906101000a900460ff169050919050565b610bc6612a37565b60011515600260003373ffffffffffffffffffffffffffffffffffffffff1673ffffffffffffffffffffffffffffffffffffffff16815260200190815260200160002060009054906101000a900460ff16151514610c59576040517f08c379a0000000000000000000000000000000000000000000000000000000008152600401610c50906134c6565b60405180910390fd5b600160003373ffffffffffffffffffffffffffffffffffffffff1673ffffffffffffffffffffffffffffffffffffffff16815260200190815260200160002060405180610100016040529081600082018054610cb490613515565b80601f0160208091040260200160405190810160405280929190818152602001828054610ce090613515565b8015610d2d5780601f10610d0257610100808354040283529160200191610d2d565b820191906000526020600020905b815481529060010190602001808311610d1057829003601f168201915b50505050508152602001600182018054610d4690613515565b80601f0160208091040260200160405190810160405280929190818152602001828054610d7290613515565b8015610dbf5780601f10610d9457610100808354040283529160200191610dbf565b820191906000526020600020905b815481529060010190602001808311610da257829003601f168201915b50505050508152602001600282018054610dd890613515565b80601f0160208091040260200160405190810160405280929190818152602001828054610e0490613515565b8015610e515780601f10610e2657610100808354040283529160200191610e51565b820191906000526020600020905b815481529060010190602001808311610e3457829003601f168201915b50505050508152602001600382018054610e6a90613515565b80601f0160208091040260200160405190810160405280929190818152602001828054610e9690613515565b8015610ee35780601f10610eb857610100808354040283529160200191610ee3565b820191906000526020600020905b815481529060010190602001808311610ec657829003601f168201915b5050505050815260200160048201805480602002602001604051908101604052809291908181526020016000905b82821015610fbd578382906000526020600020018054610f3090613515565b80601f0160208091040260200160405190810160405280929190818152602001828054610f5c90613515565b8015610fa95780601f10610f7e57610100808354040283529160200191610fa9565b820191906000526020600020905b815481529060010190602001808311610f8c57829003601f168201915b505050505081526020019060010190610f11565b50505050815260200160058201805480602002602001604051908101604052809291908181526020016000905b8282101561109657838290600052602060002001805461100990613515565b80601f016020809104026020016040519081016040528092919081815260200182805461103590613515565b80156110825780601f1061105757610100808354040283529160200191611082565b820191906000526020600020905b81548152906001019060200180831161106557829003601f168201915b505050505081526020019060010190610fea565b50505050815260200160068201805480602002602001604051908101604052809291908181526020016000905b8282101561116f5783829060005260206000200180546110e290613515565b80601f016020809104026020016040519081016040528092919081815260200182805461110e90613515565b801561115b5780601f106111305761010080835404028352916020019161115b565b820191906000526020600020905b81548152906001019060200180831161113e57829003601f168201915b5050505050815260200190600101906110c3565b50505050815260200160078201805480602002602001604051908101604052809291908181526020016000905b828210156112485783829060005260206000200180546111bb90613515565b80601f01602080910402602001604051908101604052809291908181526020018280546111e790613515565b80156112345780601f1061120957610100808354040283529160200191611234565b820191906000526020600020905b81548152906001019060200180831161121757829003601f168201915b50505050508152602001906001019061119c565b5050505081525050905090565b60011515600260003373ffffffffffffffffffffffffffffffffffffffff1673ffffffffffffffffffffffffffffffffffffffff16815260200190815260200160002060009054906101000a900460ff161515146112e8576040517f08c379a00000000000000000000000000000000000000000000000000000000081526004016112df906134c6565b60405180910390fd5b600160003373ffffffffffffffffffffffffffffffffffffffff1673ffffffffffffffffffffffffffffffffffffffff168152602001908152602001600020600080820160006113389190612a7c565b6001820160006113489190612a7c565b6002820160006113589190612a7c565b6003820160006113689190612a7c565b6004820160006113789190612abc565b6005820160006113889190612abc565b6006820160006113989190612abc565b6007820160006113a89190612abc565b50506000600260003373ffffffffffffffffffffffffffffffffffffffff1673ffffffffffffffffffffffffffffffffffffffff16815260200190815260200160002060006101000a81548160ff0219169083151502179055507f3d4eb69a81945f552caa8fec3643734209000bef971fafef356519ac585cc4ba336040516114319190613342565b60405180910390a1565b611443612894565b61144d6000612912565b565b60011515600260003373ffffffffffffffffffffffffffffffffffffffff1673ffffffffffffffffffffffffffffffffffffffff16815260200190815260200160002060009054906101000a900460ff161515146114e2576040517f08c379a00000000000000000000000000000000000000000000000000000000081526004016114d9906134c6565b60405180910390fd5b80600160003373ffffffffffffffffffffffffffffffffffffffff1673ffffffffffffffffffffffffffffffffffffffff168152602001908152602001600020600001908161153191906136fc565b507f5bddc95207207a469491b93ac482ec9c60f6df54ee5ca815fe88565326ffb9e63382604051611563929190613a9c565b60405180910390a150565b60008060009054906101000a900473ffffffffffffffffffffffffffffffffffffffff16905090565b606060011515600260003373ffffffffffffffffffffffffffffffffffffffff1673ffffffffffffffffffffffffffffffffffffffff16815260200190815260200160002060009054906101000a900460ff1615151461162c576040517f08c379a0000000000000000000000000000000000000000000000000000000008152600401611623906134c6565b60405180910390fd5b600160003373ffffffffffffffffffffffffffffffffffffffff1673ffffffffffffffffffffffffffffffffffffffff168152602001908152602001600020600501805480602002602001604051908101604052809291908181526020016000905b8282101561173a5783829060005260206000200180546116ad90613515565b80601f01602080910402602001604051908101604052809291908181526020018280546116d990613515565b80156117265780601f106116fb57610100808354040283529160200191611726565b820191906000526020600020905b81548152906001019060200180831161170957829003601f168201915b50505050508152602001906001019061168e565b50505050905090565b60011515600260003373ffffffffffffffffffffffffffffffffffffffff1673ffffffffffffffffffffffffffffffffffffffff16815260200190815260200160002060009054906101000a900460ff161515146117d6576040517f08c379a00000000000000000000000000000000000000000000000000000000081526004016117cd906134c6565b60405180910390fd5b80600160003373ffffffffffffffffffffffffffffffffffffffff1673ffffffffffffffffffffffffffffffffffffffff168152602001908152602001600020600301908161182591906136fc565b507f5bddc95207207a469491b93ac482ec9c60f6df54ee5ca815fe88565326ffb9e63382604051611857929190613b2b565b60405180910390a150565b600061186c612894565b60008251116118b0576040517f08c379a00000000000000000000000000000000000000000000000000000000081526004016118a790613bba565b60405180910390fd5b60006001905060005b8351811015611947578180156119325750600260008583815181106118e1576118e0613bda565b5b602002602001015173ffffffffffffffffffffffffffffffffffffffff1673ffffffffffffffffffffffffffffffffffffffff16815260200190815260200160002060009054906101000a900460ff165b9150808061193f90613c38565b9150506118b9565b5080915050919050565b611959612a37565b611961612894565b600160008373ffffffffffffffffffffffffffffffffffffffff1673ffffffffffffffffffffffffffffffffffffffff168152602001908152602001600020604051806101000160405290816000820180546119bc90613515565b80601f01602080910402602001604051908101604052809291908181526020018280546119e890613515565b8015611a355780601f10611a0a57610100808354040283529160200191611a35565b820191906000526020600020905b815481529060010190602001808311611a1857829003601f168201915b50505050508152602001600182018054611a4e90613515565b80601f0160208091040260200160405190810160405280929190818152602001828054611a7a90613515565b8015611ac75780601f10611a9c57610100808354040283529160200191611ac7565b820191906000526020600020905b815481529060010190602001808311611aaa57829003601f168201915b50505050508152602001600282018054611ae090613515565b80601f0160208091040260200160405190810160405280929190818152602001828054611b0c90613515565b8015611b595780601f10611b2e57610100808354040283529160200191611b59565b820191906000526020600020905b815481529060010190602001808311611b3c57829003601f168201915b50505050508152602001600382018054611b7290613515565b80601f0160208091040260200160405190810160405280929190818152602001828054611b9e90613515565b8015611beb5780601f10611bc057610100808354040283529160200191611beb565b820191906000526020600020905b815481529060010190602001808311611bce57829003601f168201915b5050505050815260200160048201805480602002602001604051908101604052809291908181526020016000905b82821015611cc5578382906000526020600020018054611c3890613515565b80601f0160208091040260200160405190810160405280929190818152602001828054611c6490613515565b8015611cb15780601f10611c8657610100808354040283529160200191611cb1565b820191906000526020600020905b815481529060010190602001808311611c9457829003601f168201915b505050505081526020019060010190611c19565b50505050815260200160058201805480602002602001604051908101604052809291908181526020016000905b82821015611d9e578382906000526020600020018054611d1190613515565b80601f0160208091040260200160405190810160405280929190818152602001828054611d3d90613515565b8015611d8a5780601f10611d5f57610100808354040283529160200191611d8a565b820191906000526020600020905b815481529060010190602001808311611d6d57829003601f168201915b505050505081526020019060010190611cf2565b50505050815260200160068201805480602002602001604051908101604052809291908181526020016000905b82821015611e77578382906000526020600020018054611dea90613515565b80601f0160208091040260200160405190810160405280929190818152602001828054611e1690613515565b8015611e635780601f10611e3857610100808354040283529160200191611e63565b820191906000526020600020905b815481529060010190602001808311611e4657829003601f168201915b505050505081526020019060010190611dcb565b50505050815260200160078201805480602002602001604051908101604052809291908181526020016000905b82821015611f50578382906000526020600020018054611ec390613515565b80601f0160208091040260200160405190810160405280929190818152602001828054611eef90613515565b8015611f3c5780601f10611f1157610100808354040283529160200191611f3c565b820191906000526020600020905b815481529060010190602001808311611f1f57829003601f168201915b505050505081526020019060010190611ea4565b50505050815250509050919050565b611f67612894565b60011515600260008373ffffffffffffffffffffffffffffffffffffffff1673ffffffffffffffffffffffffffffffffffffffff16815260200190815260200160002060009054906101000a900460ff16151514611ffa576040517f08c379a0000000000000000000000000000000000000000000000000000000008152600401611ff1906134c6565b60405180910390fd5b600160008273ffffffffffffffffffffffffffffffffffffffff1673ffffffffffffffffffffffffffffffffffffffff1681526020019081526020016000206000808201600061204a9190612a7c565b60018201600061205a9190612a7c565b60028201600061206a9190612a7c565b60038201600061207a9190612a7c565b60048201600061208a9190612abc565b60058201600061209a9190612abc565b6006820160006120aa9190612abc565b6007820160006120ba9190612abc565b50506000600260008373ffffffffffffffffffffffffffffffffffffffff1673ffffffffffffffffffffffffffffffffffffffff16815260200190815260200160002060006101000a81548160ff0219169083151502179055507f3d4eb69a81945f552caa8fec3643734209000bef971fafef356519ac585cc4ba336040516121439190613342565b60405180910390a150565b60011515600260003373ffffffffffffffffffffffffffffffffffffffff1673ffffffffffffffffffffffffffffffffffffffff16815260200190815260200160002060009054906101000a900460ff161515146121e1576040517f08c379a00000000000000000000000000000000000000000000000000000000081526004016121d8906134c6565b60405180910390fd5b80600160003373ffffffffffffffffffffffffffffffffffffffff1673ffffffffffffffffffffffffffffffffffffffff16815260200190815260200160002060050190805190602001906122379291906129de565b507fa1331ace9e1990c713e2183cd5dddf7c55cf0d36c9ca758df6aaef3609723a2c3382604051612269929190613ccc565b60405180910390a150565b606060011515600260003373ffffffffffffffffffffffffffffffffffffffff1673ffffffffffffffffffffffffffffffffffffffff16815260200190815260200160002060009054906101000a900460ff16151514612309576040517f08c379a0000000000000000000000000000000000000000000000000000000008152600401612300906134c6565b60405180910390fd5b600160003373ffffffffffffffffffffffffffffffffffffffff1673ffffffffffffffffffffffffffffffffffffffff168152602001908152602001600020600701805480602002602001604051908101604052809291908181526020016000905b8282101561241757838290600052602060002001805461238a90613515565b80601f01602080910402602001604051908101604052809291908181526020018280546123b690613515565b80156124035780601f106123d857610100808354040283529160200191612403565b820191906000526020600020905b8154815290600101906020018083116123e657829003601f168201915b50505050508152602001906001019061236b565b50505050905090565b60011515600260003373ffffffffffffffffffffffffffffffffffffffff1673ffffffffffffffffffffffffffffffffffffffff16815260200190815260200160002060009054906101000a900460ff161515146124b3576040517f08c379a00000000000000000000000000000000000000000000000000000000081526004016124aa906134c6565b60405180910390fd5b80600160003373ffffffffffffffffffffffffffffffffffffffff1673ffffffffffffffffffffffffffffffffffffffff16815260200190815260200160002060070190805190602001906125099291906129de565b507fa1331ace9e1990c713e2183cd5dddf7c55cf0d36c9ca758df6aaef3609723a2c338260405161253b929190613d5b565b60405180910390a150565b60011515600260003373ffffffffffffffffffffffffffffffffffffffff1673ffffffffffffffffffffffffffffffffffffffff16815260200190815260200160002060009054906101000a900460ff161515146125d9576040517f08c379a00000000000000000000000000000000000000000000000000000000081526004016125d0906134c6565b60405180910390fd5b80600160003373ffffffffffffffffffffffffffffffffffffffff1673ffffffffffffffffffffffffffffffffffffffff168152602001908152602001600020600101908161262891906136fc565b507f5bddc95207207a469491b93ac482ec9c60f6df54ee5ca815fe88565326ffb9e6338260405161265a929190613dea565b60405180910390a150565b61266d612894565b600073ffffffffffffffffffffffffffffffffffffffff168173ffffffffffffffffffffffffffffffffffffffff16036126dc576040517f08c379a00000000000000000000000000000000000000000000000000000000081526004016126d390613e9f565b60405180910390fd5b6126e581612912565b50565b606060011515600260003373ffffffffffffffffffffffffffffffffffffffff1673ffffffffffffffffffffffffffffffffffffffff16815260200190815260200160002060009054906101000a900460ff1615151461277d576040517f08c379a0000000000000000000000000000000000000000000000000000000008152600401612774906134c6565b60405180910390fd5b600160003373ffffffffffffffffffffffffffffffffffffffff1673ffffffffffffffffffffffffffffffffffffffff168152602001908152602001600020600401805480602002602001604051908101604052809291908181526020016000905b8282101561288b5783829060005260206000200180546127fe90613515565b80601f016020809104026020016040519081016040528092919081815260200182805461282a90613515565b80156128775780601f1061284c57610100808354040283529160200191612877565b820191906000526020600020905b81548152906001019060200180831161285a57829003601f168201915b5050505050815260200190600101906127df565b50505050905090565b61289c6129d6565b73ffffffffffffffffffffffffffffffffffffffff166128ba61156e565b73ffffffffffffffffffffffffffffffffffffffff1614612910576040517f08c379a000000000000000000000000000000000000000000000000000000000815260040161290790613f0b565b60405180910390fd5b565b60008060009054906101000a900473ffffffffffffffffffffffffffffffffffffffff169050816000806101000a81548173ffffffffffffffffffffffffffffffffffffffff021916908373ffffffffffffffffffffffffffffffffffffffff1602179055508173ffffffffffffffffffffffffffffffffffffffff168173ffffffffffffffffffffffffffffffffffffffff167f8be0079c531659141344cd1fd0a4f28419497f9722a3daafe3b4186f6b6457e060405160405180910390a35050565b600033905090565b828054828255906000526020600020908101928215612a26579160200282015b82811115612a25578251829081612a1591906136fc565b50916020019190600101906129fe565b5b509050612a339190612add565b5090565b60405180610100016040528060608152602001606081526020016060815260200160608152602001606081526020016060815260200160608152602001606081525090565b508054612a8890613515565b6000825580601f10612a9a5750612ab9565b601f016020900490600052602060002090810190612ab89190612b01565b5b50565b5080546000825590600052602060002090810190612ada9190612add565b50565b5b80821115612afd5760008181612af49190612a7c565b50600101612ade565b5090565b5b80821115612b1a576000816000905550600101612b02565b5090565b600081519050919050565b600082825260208201905092915050565b6000819050602082019050919050565b600081519050919050565b600082825260208201905092915050565b60005b83811015612b84578082015181840152602081019050612b69565b60008484015250505050565b6000601f19601f8301169050919050565b6000612bac82612b4a565b612bb68185612b55565b9350612bc6818560208601612b66565b612bcf81612b90565b840191505092915050565b6000612be68383612ba1565b905092915050565b6000602082019050919050565b6000612c0682612b1e565b612c108185612b29565b935083602082028501612c2285612b3a565b8060005b85811015612c5e5784840389528151612c3f8582612bda565b9450612c4a83612bee565b925060208a01995050600181019050612c26565b50829750879550505050505092915050565b60006020820190508181036000830152612c8a8184612bfb565b905092915050565b6000604051905090565b600080fd5b600080fd5b600080fd5b600080fd5b7f4e487b7100000000000000000000000000000000000000000000000000000000600052604160045260246000fd5b612ce882612b90565b810181811067ffffffffffffffff82111715612d0757612d06612cb0565b5b80604052505050565b6000612d1a612c92565b9050612d268282612cdf565b919050565b600067ffffffffffffffff821115612d4657612d45612cb0565b5b612d4f82612b90565b9050602081019050919050565b82818337600083830152505050565b6000612d7e612d7984612d2b565b612d10565b905082815260208101848484011115612d9a57612d99612cab565b5b612da5848285612d5c565b509392505050565b600082601f830112612dc257612dc1612ca6565b5b8135612dd2848260208601612d6b565b91505092915050565b600060208284031215612df157612df0612c9c565b5b600082013567ffffffffffffffff811115612e0f57612e0e612ca1565b5b612e1b84828501612dad565b91505092915050565b600067ffffffffffffffff821115612e3f57612e3e612cb0565b5b602082029050602081019050919050565b600080fd5b6000612e68612e6384612e24565b612d10565b90508083825260208201905060208402830185811115612e8b57612e8a612e50565b5b835b81811015612ed257803567ffffffffffffffff811115612eb057612eaf612ca6565b5b808601612ebd8982612dad565b85526020850194505050602081019050612e8d565b5050509392505050565b600082601f830112612ef157612ef0612ca6565b5b8135612f01848260208601612e55565b91505092915050565b600060208284031215612f2057612f1f612c9c565b5b600082013567ffffffffffffffff811115612f3e57612f3d612ca1565b5b612f4a84828501612edc565b91505092915050565b600080600080600080600080610100898b031215612f7457612f73612c9c565b5b600089013567ffffffffffffffff811115612f9257612f91612ca1565b5b612f9e8b828c01612dad565b985050602089013567ffffffffffffffff811115612fbf57612fbe612ca1565b5b612fcb8b828c01612dad565b975050604089013567ffffffffffffffff811115612fec57612feb612ca1565b5b612ff88b828c01612dad565b965050606089013567ffffffffffffffff81111561301957613018612ca1565b5b6130258b828c01612dad565b955050608089013567ffffffffffffffff81111561304657613045612ca1565b5b6130528b828c01612edc565b94505060a089013567ffffffffffffffff81111561307357613072612ca1565b5b61307f8b828c01612edc565b93505060c089013567ffffffffffffffff8111156130a05761309f612ca1565b5b6130ac8b828c01612edc565b92505060e089013567ffffffffffffffff8111156130cd576130cc612ca1565b5b6130d98b828c01612edc565b9150509295985092959890939650565b600073ffffffffffffffffffffffffffffffffffffffff82169050919050565b6000613114826130e9565b9050919050565b61312481613109565b811461312f57600080fd5b50565b6000813590506131418161311b565b92915050565b60006020828403121561315d5761315c612c9c565b5b600061316b84828501613132565b91505092915050565b60008115159050919050565b61318981613174565b82525050565b60006020820190506131a46000830184613180565b92915050565b600082825260208201905092915050565b60006131c682612b1e565b6131d081856131aa565b9350836020820285016131e285612b3a565b8060005b8581101561321e57848403895281516131ff8582612bda565b945061320a83612bee565b925060208a019950506001810190506131e6565b50829750879550505050505092915050565b600061010083016000830151848203600086015261324e8282612ba1565b915050602083015184820360208601526132688282612ba1565b915050604083015184820360408601526132828282612ba1565b9150506060830151848203606086015261329c8282612ba1565b915050608083015184820360808601526132b682826131bb565b91505060a083015184820360a08601526132d082826131bb565b91505060c083015184820360c08601526132ea82826131bb565b91505060e083015184820360e086015261330482826131bb565b9150508091505092915050565b6000602082019050818103600083015261332b8184613230565b905092915050565b61333c81613109565b82525050565b60006020820190506133576000830184613333565b92915050565b600067ffffffffffffffff82111561337857613377612cb0565b5b602082029050602081019050919050565b600061339c6133978461335d565b612d10565b905080838252602082019050602084028301858111156133bf576133be612e50565b5b835b818110156133e857806133d48882613132565b8452602084019350506020810190506133c1565b5050509392505050565b600082601f83011261340757613406612ca6565b5b8135613417848260208601613389565b91505092915050565b60006020828403121561343657613435612c9c565b5b600082013567ffffffffffffffff81111561345457613453612ca1565b5b613460848285016133f2565b91505092915050565b600082825260208201905092915050565b7f526573756d653a20526573756d65206e6f742065786973740000000000000000600082015250565b60006134b0601883613469565b91506134bb8261347a565b602082019050919050565b600060208201905081810360008301526134df816134a3565b9050919050565b7f4e487b7100000000000000000000000000000000000000000000000000000000600052602260045260246000fd5b6000600282049050600182168061352d57607f821691505b6020821081036135405761353f6134e6565b5b50919050565b60008190508160005260206000209050919050565b60006020601f8301049050919050565b600082821b905092915050565b6000600883026135a87fffffffffffffffffffffffffffffffffffffffffffffffffffffffffffffffff8261356b565b6135b2868361356b565b95508019841693508086168417925050509392505050565b6000819050919050565b6000819050919050565b60006135f96135f46135ef846135ca565b6135d4565b6135ca565b9050919050565b6000819050919050565b613613836135de565b61362761361f82613600565b848454613578565b825550505050565b600090565b61363c61362f565b61364781848461360a565b505050565b5b8181101561366b57613660600082613634565b60018101905061364d565b5050565b601f8211156136b05761368181613546565b61368a8461355b565b81016020851015613699578190505b6136ad6136a58561355b565b83018261364c565b50505b505050565b600082821c905092915050565b60006136d3600019846008026136b5565b1980831691505092915050565b60006136ec83836136c2565b9150826002028217905092915050565b61370582612b4a565b67ffffffffffffffff81111561371e5761371d612cb0565b5b6137288254613515565b61373382828561366f565b600060209050601f8311600181146137665760008415613754578287015190505b61375e85826136e0565b8655506137c6565b601f19841661377486613546565b60005b8281101561379c57848901518255600182019150602085019450602081019050613777565b868310156137b957848901516137b5601f8916826136c2565b8355505b6001600288020188555050505b505050505050565b7f6769746875620000000000000000000000000000000000000000000000000000600082015250565b6000613804600683613469565b915061380f826137ce565b602082019050919050565b600061382582612b4a565b61382f8185613469565b935061383f818560208601612b66565b61384881612b90565b840191505092915050565b60006060820190506138686000830185613333565b8181036020830152613879816137f7565b9050818103604083015261388d818461381a565b90509392505050565b7f656475636174696f6e0000000000000000000000000000000000000000000000600082015250565b60006138cc600983613469565b91506138d782613896565b602082019050919050565b60006060820190506138f76000830185613333565b8181036020830152613908816138bf565b9050818103604083015261391c8184612bfb565b90509392505050565b7f736b696c6c730000000000000000000000000000000000000000000000000000600082015250565b600061395b600683613469565b915061396682613925565b602082019050919050565b60006060820190506139866000830185613333565b81810360208301526139978161394e565b905081810360408301526139ab8184612bfb565b90509392505050565b7f526573756d653a20526573756d6520616c726561647920657869737400000000600082015250565b60006139ea601c83613469565b91506139f5826139b4565b602082019050919050565b60006020820190508181036000830152613a19816139dd565b9050919050565b6000604082019050613a356000830185613333565b8181036020830152613a47818461381a565b90509392505050565b7f6e616d6500000000000000000000000000000000000000000000000000000000600082015250565b6000613a86600483613469565b9150613a9182613a50565b602082019050919050565b6000606082019050613ab16000830185613333565b8181036020830152613ac281613a79565b90508181036040830152613ad6818461381a565b90509392505050565b7f61626f7574000000000000000000000000000000000000000000000000000000600082015250565b6000613b15600583613469565b9150613b2082613adf565b602082019050919050565b6000606082019050613b406000830185613333565b8181036020830152613b5181613b08565b90508181036040830152613b65818461381a565b90509392505050565b7f526573756d653a206c69737420697320656d7074790000000000000000000000600082015250565b6000613ba4601583613469565b9150613baf82613b6e565b602082019050919050565b60006020820190508181036000830152613bd381613b97565b9050919050565b7f4e487b7100000000000000000000000000000000000000000000000000000000600052603260045260246000fd5b7f4e487b7100000000000000000000000000000000000000000000000000000000600052601160045260246000fd5b6000613c43826135ca565b91507fffffffffffffffffffffffffffffffffffffffffffffffffffffffffffffffff8203613c7557613c74613c09565b5b600182019050919050565b7f657870657269656e636573000000000000000000000000000000000000000000600082015250565b6000613cb6600b83613469565b9150613cc182613c80565b602082019050919050565b6000606082019050613ce16000830185613333565b8181036020830152613cf281613ca9565b90508181036040830152613d068184612bfb565b90509392505050565b7f70726f6a65637473000000000000000000000000000000000000000000000000600082015250565b6000613d45600883613469565b9150613d5082613d0f565b602082019050919050565b6000606082019050613d706000830185613333565b8181036020830152613d8181613d38565b90508181036040830152613d958184612bfb565b90509392505050565b7f656d61696c000000000000000000000000000000000000000000000000000000600082015250565b6000613dd4600583613469565b9150613ddf82613d9e565b602082019050919050565b6000606082019050613dff6000830185613333565b8181036020830152613e1081613dc7565b90508181036040830152613e24818461381a565b90509392505050565b7f4f776e61626c653a206e6577206f776e657220697320746865207a65726f206160008201527f6464726573730000000000000000000000000000000000000000000000000000602082015250565b6000613e89602683613469565b9150613e9482613e2d565b604082019050919050565b60006020820190508181036000830152613eb881613e7c565b9050919050565b7f4f776e61626c653a2063616c6c6572206973206e6f7420746865206f776e6572600082015250565b6000613ef5602083613469565b9150613f0082613ebf565b602082019050919050565b60006020820190508181036000830152613f2481613ee8565b905091905056fea2646970667358221220f2d9c0e5c9e9b492cf90be3902087f989e1ac837b98e651cc8274c58881f43a164736f6c63430008130033",
  "linkReferences": {},
  "deployedLinkReferences": {}
}